{
  "contractName": "DocumentVerification",
  "abi": [
    {
      "inputs": [],
      "stateMutability": "nonpayable",
      "type": "constructor"
    },
    {
      "anonymous": false,
      "inputs": [
        {
          "indexed": false,
          "internalType": "uint256",
          "name": "requestId",
          "type": "uint256"
        },
        {
          "indexed": false,
          "internalType": "string",
          "name": "cid",
          "type": "string"
        }
      ],
      "name": "AutoVerified",
      "type": "event"
    },
    {
      "anonymous": false,
      "inputs": [
        {
          "indexed": false,
          "internalType": "address",
          "name": "user",
          "type": "address"
        },
        {
          "indexed": false,
          "internalType": "string",
          "name": "cid",
          "type": "string"
        }
      ],
      "name": "CIDStored",
      "type": "event"
    },
    {
      "anonymous": false,
      "inputs": [
        {
          "indexed": false,
          "internalType": "string",
          "name": "cid",
          "type": "string"
        }
      ],
      "name": "TrustedCIDAdded",
      "type": "event"
    },
    {
      "anonymous": false,
      "inputs": [
        {
          "indexed": false,
          "internalType": "string",
          "name": "cid",
          "type": "string"
        }
      ],
      "name": "TrustedCIDRemoved",
      "type": "event"
    },
    {
      "anonymous": false,
      "inputs": [
        {
          "indexed": false,
          "internalType": "uint256",
          "name": "requestId",
          "type": "uint256"
        },
        {
          "indexed": false,
          "internalType": "bool",
          "name": "approved",
          "type": "bool"
        },
        {
          "indexed": false,
          "internalType": "address",
          "name": "verifier",
          "type": "address"
        }
      ],
      "name": "VerificationProcessed",
      "type": "event"
    },
    {
      "anonymous": false,
      "inputs": [
        {
          "indexed": false,
          "internalType": "uint256",
          "name": "requestId",
          "type": "uint256"
        },
        {
          "indexed": false,
          "internalType": "string",
          "name": "documentHash",
          "type": "string"
        },
        {
          "indexed": false,
          "internalType": "address",
          "name": "requester",
          "type": "address"
        },
        {
          "indexed": false,
          "internalType": "uint256",
          "name": "timestamp",
          "type": "uint256"
        }
      ],
      "name": "VerificationRequested",
      "type": "event"
    },
    {
      "inputs": [
        {
          "internalType": "address",
          "name": "",
          "type": "address"
        }
      ],
      "name": "isVerifier",
      "outputs": [
        {
          "internalType": "bool",
          "name": "",
          "type": "bool"
        }
      ],
      "stateMutability": "view",
      "type": "function",
      "constant": true
    },
    {
      "inputs": [],
      "name": "owner",
      "outputs": [
        {
          "internalType": "address",
          "name": "",
          "type": "address"
        }
      ],
      "stateMutability": "view",
      "type": "function",
      "constant": true
    },
    {
      "inputs": [
        {
          "internalType": "uint256",
          "name": "",
          "type": "uint256"
        }
      ],
      "name": "requests",
      "outputs": [
        {
          "internalType": "string",
          "name": "documentHash",
          "type": "string"
        },
        {
          "internalType": "address",
          "name": "requester",
          "type": "address"
        },
        {
          "internalType": "enum DocumentVerification.VerificationStatus",
          "name": "status",
          "type": "uint8"
        },
        {
          "internalType": "address",
          "name": "verifier",
          "type": "address"
        },
        {
          "internalType": "string",
          "name": "documentName",
          "type": "string"
        },
        {
          "internalType": "uint256",
          "name": "timestamp",
          "type": "uint256"
        },
        {
          "internalType": "bool",
          "name": "autoVerified",
          "type": "bool"
        }
      ],
      "stateMutability": "view",
      "type": "function",
      "constant": true
    },
    {
      "inputs": [
        {
          "internalType": "string",
          "name": "",
          "type": "string"
        }
      ],
      "name": "trustedCIDs",
      "outputs": [
        {
          "internalType": "bool",
          "name": "",
          "type": "bool"
        }
      ],
      "stateMutability": "view",
      "type": "function",
      "constant": true
    },
    {
      "inputs": [
        {
          "internalType": "uint256",
          "name": "",
          "type": "uint256"
        }
      ],
      "name": "verifierList",
      "outputs": [
        {
          "internalType": "address",
          "name": "",
          "type": "address"
        }
      ],
      "stateMutability": "view",
      "type": "function",
      "constant": true
    },
    {
      "inputs": [
        {
          "internalType": "string",
          "name": "cid",
          "type": "string"
        }
      ],
      "name": "addTrustedCID",
      "outputs": [],
      "stateMutability": "nonpayable",
      "type": "function"
    },
    {
      "inputs": [
        {
          "internalType": "string",
          "name": "cid",
          "type": "string"
        }
      ],
      "name": "removeTrustedCID",
      "outputs": [],
      "stateMutability": "nonpayable",
      "type": "function"
    },
    {
      "inputs": [
        {
          "internalType": "string",
          "name": "cid",
          "type": "string"
        }
      ],
      "name": "isTrustedCID",
      "outputs": [
        {
          "internalType": "bool",
          "name": "",
          "type": "bool"
        }
      ],
      "stateMutability": "view",
      "type": "function",
      "constant": true
    },
    {
      "inputs": [
        {
          "internalType": "string",
          "name": "_hash",
          "type": "string"
        },
        {
          "internalType": "string",
          "name": "_documentName",
          "type": "string"
        }
      ],
      "name": "requestVerification",
      "outputs": [],
      "stateMutability": "nonpayable",
      "type": "function"
    },
    {
      "inputs": [
        {
          "internalType": "uint256",
          "name": "_requestId",
          "type": "uint256"
        },
        {
          "internalType": "bool",
          "name": "_approve",
          "type": "bool"
        }
      ],
      "name": "verifyRequest",
      "outputs": [],
      "stateMutability": "nonpayable",
      "type": "function"
    },
    {
      "inputs": [
        {
          "internalType": "string",
          "name": "cid",
          "type": "string"
        }
      ],
      "name": "storeDocumentCID",
      "outputs": [],
      "stateMutability": "nonpayable",
      "type": "function"
    },
    {
      "inputs": [
        {
          "internalType": "address",
          "name": "user",
          "type": "address"
        },
        {
          "internalType": "string",
          "name": "cid",
          "type": "string"
        }
      ],
      "name": "verifyDocumentCID",
      "outputs": [
        {
          "internalType": "bool",
          "name": "",
          "type": "bool"
        }
      ],
      "stateMutability": "view",
      "type": "function",
      "constant": true
    },
    {
      "inputs": [
        {
          "internalType": "address",
          "name": "user",
          "type": "address"
        }
      ],
      "name": "getUserCIDs",
      "outputs": [
        {
          "internalType": "string[]",
          "name": "",
          "type": "string[]"
        }
      ],
      "stateMutability": "view",
      "type": "function",
      "constant": true
    },
    {
      "inputs": [],
      "name": "getRequestCount",
      "outputs": [
        {
          "internalType": "uint256",
          "name": "",
          "type": "uint256"
        }
      ],
      "stateMutability": "view",
      "type": "function",
      "constant": true
    },
    {
      "inputs": [],
      "name": "getAllVerifiers",
      "outputs": [
        {
          "internalType": "address[]",
          "name": "",
          "type": "address[]"
        }
      ],
      "stateMutability": "view",
      "type": "function",
      "constant": true
    },
    {
      "inputs": [
        {
          "internalType": "address",
          "name": "_verifier",
          "type": "address"
        }
      ],
      "name": "addVerifier",
      "outputs": [],
      "stateMutability": "nonpayable",
      "type": "function"
    },
    {
      "inputs": [
        {
          "internalType": "address",
          "name": "_verifier",
          "type": "address"
        }
      ],
      "name": "removeVerifier",
      "outputs": [],
      "stateMutability": "nonpayable",
      "type": "function"
    },
    {
      "inputs": [],
      "name": "getActiveDocumentCount",
      "outputs": [
        {
          "internalType": "uint256",
          "name": "count",
          "type": "uint256"
        }
      ],
      "stateMutability": "view",
      "type": "function",
      "constant": true
    },
    {
      "inputs": [
        {
          "internalType": "uint256",
          "name": "monthStartTimestamp",
          "type": "uint256"
        }
      ],
      "name": "getActiveDocumentsSince",
      "outputs": [
        {
          "internalType": "uint256",
          "name": "count",
          "type": "uint256"
        }
      ],
      "stateMutability": "view",
      "type": "function",
      "constant": true
    },
    {
      "inputs": [
        {
          "internalType": "uint256",
          "name": "requestId",
          "type": "uint256"
        }
      ],
      "name": "isAutoVerified",
      "outputs": [
        {
          "internalType": "bool",
          "name": "",
          "type": "bool"
        }
      ],
      "stateMutability": "view",
      "type": "function",
      "constant": true
    }
  ],
  "bytecode": "0x6080604052348015600f57600080fd5b50600080546001600160a01b0319163317905561187f806100316000396000f3fe608060405234801561001057600080fd5b506004361061012c5760003560e01c8063923f5bf6116100ad578063d2f756a111610071578063d2f756a1146102a3578063dc3746a9146102b6578063dfe17083146102c9578063e814aff2146102f7578063f58ce8071461030a57600080fd5b8063923f5bf614610242578063af8d155514610255578063b18349f21461026a578063ca2dfd0a1461027d578063cc08d6a01461029057600080fd5b806381d12c58116100f457806381d12c58146101c3578063858c5616146101e9578063868996ef146102095780638da5cb5b1461021c5780639000b3d61461022f57600080fd5b806333105218146101315780633fad1834146101695780634de2bfbf1461017b57806357762ddd1461019057806362896701146101bb575b600080fd5b61015461013f36600461119a565b60016020526000908152604090205460ff1681565b60405190151581526020015b60405180910390f35b6003545b604051908152602001610160565b61018e610189366004611261565b61031d565b005b6101a361019e3660046112fe565b61056e565b6040516001600160a01b039091168152602001610160565b61016d610598565b6101d66101d13660046112fe565b61060a565b604051610160979695949392919061137d565b6101fc6101f736600461119a565b610785565b6040516101609190611401565b610154610217366004611466565b610874565b6000546101a3906001600160a01b031681565b61018e61023d36600461119a565b61089f565b6101546102503660046112fe565b610994565b61025d610a0d565b60405161016091906114a3565b61018e610278366004611466565b610a6f565b61018e61028b36600461119a565b610b04565b61016d61029e3660046112fe565b610ca6565b6101546102b13660046114ef565b610d4b565b61018e6102c4366004611466565b610ec8565b6101546102d7366004611466565b805160208183018101805160058252928201919093012091525460ff1681565b61018e61030536600461153d565b610f23565b61018e610318366004611466565b6110f4565b600060058484604051610331929190611572565b9081526040519081900360200190205460ff169050600081610354576000610357565b60015b9050600082610367576000610369565b305b905060036040518060e0016040528088888080601f0160208091040260200160405190810160405280939291908181526020018383808284376000920191909152505050908252503360208201526040018460028111156103cc576103cc611367565b81526001600160a01b03841660208083019190915260408201889052426060830152861515608090920191909152825460018101845560009384529220815191926006020190819061041e9082611605565b5060208201516001820180546001600160a01b039092166001600160a01b03198316811782556040850151926001600160a81b03191617600160a01b83600281111561046c5761046c611367565b021790555060608201516002820180546001600160a01b0319166001600160a01b03909216919091179055608082015160038201906104ab9082611605565b5060a0820151600482015560c0909101516005909101805460ff19169115159190911790556003546000906104e2906001906116da565b90507f7af23510d46ca4055f4bcb1aa6842598abb2c1f3a13c46385a7ccd0ac87b8084818888334260405161051b959493929190611716565b60405180910390a18315610565577fe1787d598ea2e0c8039abfa4585595e3e673074a121a963d7849e433b9c19fb381888860405161055c9392919061174d565b60405180910390a15b50505050505050565b6002818154811061057e57600080fd5b6000918252602090912001546001600160a01b0316905081565b6000805b600354811015610606576000600382815481106105bb576105bb611770565b906000526020600020906006020160010160149054906101000a900460ff1660028111156105eb576105eb611367565b036105fe57816105fa81611786565b9250505b60010161059c565b5090565b6003818154811061061a57600080fd5b906000526020600020906006020160009150905080600001805461063d90611582565b80601f016020809104026020016040519081016040528092919081815260200182805461066990611582565b80156106b65780601f1061068b576101008083540402835291602001916106b6565b820191906000526020600020905b81548152906001019060200180831161069957829003601f168201915b505050506001830154600284015460038501805494956001600160a01b0380851696600160a01b90950460ff169550909216926106f290611582565b80601f016020809104026020016040519081016040528092919081815260200182805461071e90611582565b801561076b5780601f106107405761010080835404028352916020019161076b565b820191906000526020600020905b81548152906001019060200180831161074e57829003601f168201915b50505050600483015460059093015491929160ff16905087565b6001600160a01b0381166000908152600460209081526040808320805482518185028101850190935280835260609492939192909184015b828210156108695783829060005260206000200180546107dc90611582565b80601f016020809104026020016040519081016040528092919081815260200182805461080890611582565b80156108555780601f1061082a57610100808354040283529160200191610855565b820191906000526020600020905b81548152906001019060200180831161083857829003601f168201915b5050505050815260200190600101906107bd565b505050509050919050565b6000600582604051610886919061179f565b9081526040519081900360200190205460ff1692915050565b6000546001600160a01b031633146108d25760405162461bcd60e51b81526004016108c9906117bb565b60405180910390fd5b6001600160a01b03811660009081526001602052604090205460ff16156109305760405162461bcd60e51b815260206004820152601260248201527120b63932b0b23c9030903b32b934b334b2b960711b60448201526064016108c9565b6001600160a01b031660008181526001602081905260408220805460ff1916821790556002805491820181559091527f405787fa12a823e0f2b7631cc41b3ba8828b3321ca811111fa75cd3aa3bb5ace0180546001600160a01b0319169091179055565b60035460009082106109dd5760405162461bcd60e51b8152602060048201526012602482015271125b9d985b1a59081c995c5d595cdd08125160721b60448201526064016108c9565b600382815481106109f0576109f0611770565b600091825260209091206005600690920201015460ff1692915050565b60606002805480602002602001604051908101604052809291908181526020018280548015610a6557602002820191906000526020600020905b81546001600160a01b03168152600190910190602001808311610a47575b5050505050905090565b6000546001600160a01b03163314610a995760405162461bcd60e51b81526004016108c9906117bb565b6000600582604051610aab919061179f565b908152604051908190036020018120805492151560ff19909316929092179091557f1132d8db32f8fe0160115c6e7f047e3b7320d22a0907c78ddab3646b7e56a7b190610af99083906117fc565b60405180910390a150565b6000546001600160a01b03163314610b2e5760405162461bcd60e51b81526004016108c9906117bb565b6001600160a01b03811660009081526001602052604090205460ff16610b875760405162461bcd60e51b815260206004820152600e60248201526d2737ba1030903b32b934b334b2b960911b60448201526064016108c9565b6001600160a01b0381166000908152600160205260408120805460ff191690555b600254811015610ca257816001600160a01b031660028281548110610bcf57610bcf611770565b6000918252602090912001546001600160a01b031603610c9a5760028054610bf9906001906116da565b81548110610c0957610c09611770565b600091825260209091200154600280546001600160a01b039092169183908110610c3557610c35611770565b9060005260206000200160006101000a8154816001600160a01b0302191690836001600160a01b031602179055506002805480610c7457610c7461180f565b600082815260209020810160001990810180546001600160a01b03191690550190555050565b600101610ba8565b5050565b6000805b600354811015610d4557600060038281548110610cc957610cc9611770565b906000526020600020906006020160010160149054906101000a900460ff166002811115610cf957610cf9611367565b148015610d2a57508260038281548110610d1557610d15611770565b90600052602060002090600602016004015410155b15610d3d5781610d3981611786565b9250505b600101610caa565b50919050565b6001600160a01b038216600090815260046020908152604080832080548251818502810185019093528083528493849084015b82821015610e2a578382906000526020600020018054610d9d90611582565b80601f0160208091040260200160405190810160405280929190818152602001828054610dc990611582565b8015610e165780601f10610deb57610100808354040283529160200191610e16565b820191906000526020600020905b815481529060010190602001808311610df957829003601f168201915b505050505081526020019060010190610d7e565b50505050905060005b8151811015610ebb5783604051602001610e4d919061179f565b60405160208183030381529060405280519060200120828281518110610e7557610e75611770565b6020026020010151604051602001610e8d919061179f565b6040516020818303038152906040528051906020012003610eb357600192505050610ec2565b600101610e33565b5060009150505b92915050565b33600090815260046020908152604082208054600181018255908352912001610ef18282611605565b507fd8a0edc6ade10e42d7ab691902b8c1a635fabe45ace3609fc4fbfad7e424e4273382604051610af9929190611825565b3360009081526001602052604090205460ff16610f905760405162461bcd60e51b815260206004820152602560248201527f4f6e6c79207665726966696572732063616e2063616c6c20746869732066756e60448201526431ba34b7b760d91b60648201526084016108c9565b6003548210610fd65760405162461bcd60e51b8152602060048201526012602482015271125b9d985b1a59081c995c5d595cdd08125160721b60448201526064016108c9565b600060038381548110610feb57610feb611770565b60009182526020822060069091020191506001820154600160a01b900460ff16600281111561101c5761101c611367565b1461105d5760405162461bcd60e51b8152602060048201526011602482015270105b1c9958591e481c1c9bd8d95cdcd959607a1b60448201526064016108c9565b8161106957600261106c565b60015b60018201805460ff60a01b1916600160a01b83600281111561109057611090611367565b02179055506002810180546001600160a01b03191633908117909155604080518581528415156020820152908101919091527fc9309abbb89b12a5d283fc9433c646c28705d50dde4b7b60b6c4fcd0d7bf08099060600160405180910390a1505050565b6000546001600160a01b0316331461111e5760405162461bcd60e51b81526004016108c9906117bb565b6001600582604051611130919061179f565b908152604051908190036020018120805492151560ff19909316929092179091557f49dd539caa590e7407f165ce1f10925f588ab82d5acaf00d7e5f2c184d40c02390610af99083906117fc565b80356001600160a01b038116811461119557600080fd5b919050565b6000602082840312156111ac57600080fd5b6111b58261117e565b9392505050565b634e487b7160e01b600052604160045260246000fd5b600082601f8301126111e357600080fd5b813567ffffffffffffffff8111156111fd576111fd6111bc565b604051601f8201601f19908116603f0116810167ffffffffffffffff8111828210171561122c5761122c6111bc565b60405281815283820160200185101561124457600080fd5b816020850160208301376000918101602001919091529392505050565b60008060006040848603121561127657600080fd5b833567ffffffffffffffff81111561128d57600080fd5b8401601f8101861361129e57600080fd5b803567ffffffffffffffff8111156112b557600080fd5b8660208284010111156112c757600080fd5b60209182019450925084013567ffffffffffffffff8111156112e857600080fd5b6112f4868287016111d2565b9150509250925092565b60006020828403121561131057600080fd5b5035919050565b60005b8381101561133257818101518382015260200161131a565b50506000910152565b60008151808452611353816020860160208601611317565b601f01601f19169290920160200192915050565b634e487b7160e01b600052602160045260246000fd5b60e08152600061139060e083018a61133b565b6001600160a01b0389166020840152600388106113bd57634e487b7160e01b600052602160045260246000fd5b604083018890526001600160a01b038716606084015282810360808401526113e5818761133b565b60a0840195909552505090151560c09091015295945050505050565b6000602082016020835280845180835260408501915060408160051b86010192506020860160005b8281101561145a57603f1987860301845261144585835161133b565b94506020938401939190910190600101611429565b50929695505050505050565b60006020828403121561147857600080fd5b813567ffffffffffffffff81111561148f57600080fd5b61149b848285016111d2565b949350505050565b602080825282518282018190526000918401906040840190835b818110156114e45783516001600160a01b03168352602093840193909201916001016114bd565b509095945050505050565b6000806040838503121561150257600080fd5b61150b8361117e565b9150602083013567ffffffffffffffff81111561152757600080fd5b611533858286016111d2565b9150509250929050565b6000806040838503121561155057600080fd5b823591506020830135801515811461156757600080fd5b809150509250929050565b8183823760009101908152919050565b600181811c9082168061159657607f821691505b602082108103610d4557634e487b7160e01b600052602260045260246000fd5b601f82111561160057806000526020600020601f840160051c810160208510156115dd5750805b601f840160051c820191505b818110156115fd57600081556001016115e9565b50505b505050565b815167ffffffffffffffff81111561161f5761161f6111bc565b6116338161162d8454611582565b846115b6565b6020601f821160018114611667576000831561164f5750848201515b600019600385901b1c1916600184901b1784556115fd565b600084815260208120601f198516915b828110156116975787850151825560209485019460019092019101611677565b50848210156116b55786840151600019600387901b60f8161c191681555b50505050600190811b01905550565b634e487b7160e01b600052601160045260246000fd5b81810381811115610ec257610ec26116c4565b81835281816020850137506000828201602090810191909152601f909101601f19169091010190565b8581526080602082015260006117306080830186886116ed565b6001600160a01b0394909416604083015250606001529392505050565b8381526040602082015260006117676040830184866116ed565b95945050505050565b634e487b7160e01b600052603260045260246000fd5b600060018201611798576117986116c4565b5060010190565b600082516117b1818460208701611317565b9190910192915050565b60208082526021908201527f4f6e6c79206f776e65722063616e2063616c6c20746869732066756e6374696f6040820152603760f91b606082015260800190565b6020815260006111b5602083018461133b565b634e487b7160e01b600052603160045260246000fd5b6001600160a01b038316815260406020820181905260009061149b9083018461133b56fea26469706673582212205c4f045acfaa55dd3b6439f36d3991422dfa13647d1a2f77f21bb797c1a51d6d64736f6c634300081a0033",
  "immutableReferences": {},
  "source": "// SPDX-License-Identifier: MIT\npragma solidity ^0.8.0;\n\ncontract DocumentVerification {\n    address public owner;\n\n    mapping(address => bool) public isVerifier;\n    address[] public verifierList;\n\n    enum VerificationStatus { Pending, Approved, Rejected }\n\n    struct VerificationRequest {\n        string documentHash;\n        address requester;\n        VerificationStatus status;\n        address verifier;\n        string documentName;\n        uint256 timestamp;\n        bool autoVerified; //  NEW FLAG\n    }\n\n    VerificationRequest[] public requests;\n\n    mapping(address => string[]) private userCIDs;\n\n    //  NEW: Trusted CIDs Registry\n    mapping(string => bool) public trustedCIDs;\n\n    //  Events\n    event VerificationRequested(uint256 requestId, string documentHash, address requester, uint256 timestamp);\n    event VerificationProcessed(uint256 requestId, bool approved, address verifier);\n    event CIDStored(address user, string cid);\n    event TrustedCIDAdded(string cid);\n    event TrustedCIDRemoved(string cid);\n    event AutoVerified(uint256 requestId, string cid);\n\n    constructor() {\n        owner = msg.sender;\n    }\n\n    modifier onlyOwner() {\n        require(msg.sender == owner, \"Only owner can call this function\");\n        _;\n    }\n\n    modifier onlyVerifier() {\n        require(isVerifier[msg.sender], \"Only verifiers can call this function\");\n        _;\n    }\n\n    //  Admin uploads trusted document hashes\n    function addTrustedCID(string memory cid) public onlyOwner {\n        trustedCIDs[cid] = true;\n        emit TrustedCIDAdded(cid);\n    }\n\n    function removeTrustedCID(string memory cid) public onlyOwner {\n        trustedCIDs[cid] = false;\n        emit TrustedCIDRemoved(cid);\n    }\n\n    function isTrustedCID(string memory cid) public view returns (bool) {\n        return trustedCIDs[cid];\n    }\n\n    //  User requests verification (auto-check)\n    function requestVerification(string calldata _hash, string memory _documentName) public {\n        bool isAuto = trustedCIDs[_hash];\n        VerificationStatus status = isAuto ? VerificationStatus.Approved : VerificationStatus.Pending;\n        address verifiedBy = isAuto ? address(this) : address(0);\n\n        requests.push(VerificationRequest({\n            documentHash: _hash,\n            requester: msg.sender,\n            status: status,\n            verifier: verifiedBy,\n            documentName: _documentName,\n            timestamp: block.timestamp,\n            autoVerified: isAuto\n        }));\n\n        uint256 requestId = requests.length - 1;\n        emit VerificationRequested(requestId, _hash, msg.sender, block.timestamp);\n\n        if (isAuto) {\n            emit AutoVerified(requestId, _hash);\n        }\n    }\n\n    function verifyRequest(uint256 _requestId, bool _approve) public onlyVerifier {\n        require(_requestId < requests.length, \"Invalid request ID\");\n        VerificationRequest storage request = requests[_requestId];\n        require(request.status == VerificationStatus.Pending, \"Already processed\");\n        request.status = _approve ? VerificationStatus.Approved : VerificationStatus.Rejected;\n        request.verifier = msg.sender;\n        emit VerificationProcessed(_requestId, _approve, msg.sender);\n    }\n\n    function storeDocumentCID(string memory cid) public {\n        userCIDs[msg.sender].push(cid);\n        emit CIDStored(msg.sender, cid);\n    }\n\n    function verifyDocumentCID(address user, string memory cid) public view returns (bool) {\n        string[] memory cids = userCIDs[user];\n        for (uint256 i = 0; i < cids.length; i++) {\n            if (keccak256(abi.encodePacked(cids[i])) == keccak256(abi.encodePacked(cid))) {\n                return true;\n            }\n        }\n        return false;\n    }\n\n    function getUserCIDs(address user) public view returns (string[] memory) {\n        return userCIDs[user];\n    }\n\n    function getRequestCount() public view returns (uint256) {\n        return requests.length;\n    }\n\n    function getAllVerifiers() public view returns (address[] memory) {\n        return verifierList;\n    }\n\n    function addVerifier(address _verifier) public onlyOwner {\n        require(!isVerifier[_verifier], \"Already a verifier\");\n        isVerifier[_verifier] = true;\n        verifierList.push(_verifier);\n    }\n\n    function removeVerifier(address _verifier) public onlyOwner {\n        require(isVerifier[_verifier], \"Not a verifier\");\n        isVerifier[_verifier] = false;\n        for (uint256 i = 0; i < verifierList.length; i++) {\n            if (verifierList[i] == _verifier) {\n                verifierList[i] = verifierList[verifierList.length - 1];\n                verifierList.pop();\n                break;\n            }\n        }\n    }\n\n    function getActiveDocumentCount() public view returns (uint256 count) {\n        for (uint256 i = 0; i < requests.length; i++) {\n            if (requests[i].status == VerificationStatus.Pending) {\n                count++;\n            }\n        }\n    }\n\n    function getActiveDocumentsSince(uint256 monthStartTimestamp) public view returns (uint256 count) {\n        for (uint256 i = 0; i < requests.length; i++) {\n            if (requests[i].status == VerificationStatus.Pending && requests[i].timestamp >= monthStartTimestamp) {\n                count++;\n            }\n        }\n    }\n\n    function isAutoVerified(uint256 requestId) public view returns (bool) {\n        require(requestId < requests.length, \"Invalid request ID\");\n        return requests[requestId].autoVerified;\n    }\n}\n",
  "sourcePath": "C:\\Users\\User\\Downloads\\fyp-finalb4auto\\truffle\\contracts\\DocumentVerification.sol",
  "compiler": {
    "name": "solc",
    "version": "0.8.26+commit.8a97fa7a.Emscripten.clang"
  },
  "schemaVersion": "3.4.16",
  "updatedAt": "2025-06-16T14:47:25.855Z",
  "networkType": "ethereum",
  "devdoc": {
    "kind": "dev",
    "methods": {},
    "version": 1
  },
  "userdoc": {
    "kind": "user",
    "methods": {},
    "version": 1
  }
}